S01500005A69676265654941535A6F6E65322E733337DE
S315000040000018002085DE0100C9660000CD660000AC
S31500004010A70A0A010042000004180FAC206900013B
S31500004020000000000000000000000000000000008A
S315000040300000000084AF0300000000000000000044
S315000040400000000000000000FFFFFFFFFFFFFFFF72
S31500004050FFFFFFFF006007000000000000000000F7
S31500004060FFFFFFFFFFFFFFFF8000000000000000D2
S31500004070000000000000000000000000000000003A
S315000040800000000000000000344000203440002002
S3150000409000180020B2010400A87F0300A00E002033
S311000040A0700E002000E007000000000089
S315000042000018002085DE0100C9660000CD660000AA
S315000042103DB70000D1660000D966000083DE0100CC
S3150000422083DE010083DE010083DE010083DE010000
S31500004230DD66000083DE010083DE010083DE01000F
S31500004240506700005067000050670000506700008C
S3150000425050670000658400003D9300005067000031
S3150000426050670000506700006982000075ED00008D
S31500004270506700005067000050670000506700005C
S3150000428050670000506700005067000083DE0100A1
S3150000429050670000E5790000506700005067000095
S315000042A050670000E57A0000BD7A00005067000004
S315000042B050670000506700005067000035B70100E6
S315000042C0D5B60100D1B6010035AE010031B7010007
S315000042D0D9B60100F9B60100DDB60100459D010021
S315000042E071B701005067000050670000B169000017
S315000042F0506700004DC100005067000083DE0100DA
S3150000430050670000506700004946000050670000F3
S3150000431050670000506700005067000050670000BB
S3150000432050670000506700005067000050670000AB
S3090000433050670000CC
S31500004334F8B500BFF8BC08BC9E467047F8B500BF88
S31500004344F8BC08BC9E46704710B5054C237833B9B3
S31500004354044B13B1044800E000BF0123237010BDD1
S31500004364102300200000000054F7030008B5034B97
S315000043741BB10349034800E000BF08BD000000006C
S315000043841423002054F70300154B002B08BF134BCE
S315000043949D46A3F5803A00218B460F461348144ADE
S315000043A4121A31F0FCFF0F4B002B00D098470E4B2E
S315000043B4002B00D098470020002104000D000D4872
S315000043C4002802D00C4800E000BF31F091FF200025
S315000043D429000AF02FFF31F077FF00BF0000080024
S315000043E400180020000000000000000056220020F3
S315000043F434400020000000000000000070B50024D6
S31500004404082688B002463349012006AD0EF0D2F9DB
S315000044146C602B46009610224FF4A06101208DF8A3
S315000044241340ADF8144006940CF0ADFF00960DF160
S31500004434130322464FF4A06101200CF0A4FF264E7C
S315000044442B5D23B12246314601200EF0B3F9013427
S31500004454082CF5D19DF81320204901200EF0AAF965
S31500004464009405AB02224FF4A06101200CF08BFFEF
S315000044749DF814209DF8153012F1FF3218BF012261
S3150000448402EB0324A4B20094154901208DF81420EC
S315000044940EF090F91923022200934FF4A06105ABA4
S315000044A401200CF01FFF012007F0C2FF00220D4B74
S315000044B4CDE90202CDE900424FF4A06109200DF0D6
S315000044C427F9012108460DF091F90DF05BF908B0C2
S315000044D470BD00BF0B8003002580030030800300FD
S315000044E43A8003005D8003000020704707B5054B42
S315000044F40090054A054901200EF05CF903B05DF809
S3150000450404FB00BFE97F0300F27F0300F77F03008B
S3150000451408B5A52002F082FA012008BD02F048BAC7
S3150000452407B503F0ADFA012100230222084605F07F
S3150000453487FC0749002003F0B1FA01210023CDE9E5
S3150000454400111A46084605F021FC03B05DF804FB89
S3150000455401440000F0B52E4E91B008AD00240FCEF4
S3150000456403270FC596E80F00012685E80F00294D9D
S31500004574CDE903442846CDE9054407948DF80E7029
S315000045848DF808608DF809408DF80A408DF80B40C7
S3150000459405F008FD0521084605F0A0F90223224688
S315000045A41D4928468DF8173005F078FD23468DF809
S315000045B419000090224642F2107128468DF82370A5
S315000045C405F084FDA4230A9008AA05A928468DF8B7
S315000045D409308DF80E408DF811408DF8086005F00D
S315000045E499FD02AA03A9284605F09CFC0B4AD2F8B9
S315000045F428333343C2F828334FF48022AB6A33435B
S31500004604AB62074BC3F884215A6011B0F0BD00BFFA
S31500004614A87F03000040004A40420F0000C0034048
S3150000462400E100E008B5FFF77BFFFFF793FFBDE865
S31500004634084041F2883101481DF06EBE083A002058
S315000046440000000070B5254E86B0254C02AD3146FB
S31500004654284605F0C5FE95E8030084E803002149D1
S31500004664226801200EF0A6F8206831F0EFF917A3AE
S31500004674D3E9002331F064FA16A3D3E9002331F019
S3150000468489FB194BC3E90001D3E9000131F06AFC47
S315000046940A221649424301200EF08CF8012142F207
S315000046A42403C822F150236808465A4340F6FF7390
S315000046B4B2FBF3F206AB03F8012D08220092212285
S315000046C40CF010FE06B070BDAFF300806666666639
S315000046D466660A400000000000FEAF400040004A43
S315000046E4302F0020C87F030008230020D87F030052
S315000046F400230122034841F288310370024BDA6039
S315000047041DF00ABE083A00200040004AC37B10B5DB
S31500004714ABB9C37C032B12D8DFE803F002131621CE
S31500004724017D8289CB1C9A4224D38068445C013182
S315000047340DF081FB0146204609F09EF8E0B9812080
S3150000474410BD09F0F1F8F9E7017D82890B1D9A4243
S3150000475410D380680DF06CFB09F030F9EEE7017DAB
S3150000476482898B1C9A4205D380680DF064FB09F09C
S315000047743BF9E3E78020E3E70020E1E7C37B10B5DC
S315000047846BB9C47C5CB9037D81899A1C914208D3B8
S315000047948268591C515CD05C07F0F6FD18B981207B
S315000047A410BD8020FCE72046FAE710B5437D044699
S315000047B4012B0CD10368028A598858790CF0A0F9A8
S315000047C428B123685B88032B13D0C32012E0637DD2
S315000047D4002BFAD12368228A598858790CF087F974
S315000047E40028F2D023685B88032B02D003D8012B60
S315000047F4EBD8812010BD202B07D0B3F5A06FE4D1F0
S315000048042046BDE81040FFF7B9BF2046BDE810407A
S31500004814FFF77CBF012070470120704701207047D5
S315000048247047002070470020704700207047002022
S31500004834704700207047002070477047704700207B
S3150000484470470120704701207047B520704700204B
S31500004854704700207047002070470020704770475B
S3150000486400207047B5207047002070477047704796
S3150000487400207047842070477047002070477047B7
S31500004884002070477047002070477047012070472A
S31500004894002070470020704700207047034B1B68B8
S315000048A41878012808BF0220704700BFCC2C0020CE
S315000048B4704700207047000003460120024AC3E9FE
S315000048C4032000221A7070470100FEFF7047002083
S315000048D47047002070470020704700207047002072
S315000048E470470020704700207047002070477047CB
S315000048F4B52070470020704700207047002070479D
S3150000490470477047B520704770477047002070475E
S3150000491470477047704770470023FF21084A137099
S3150000492482F8783082F8653082F8773082F8793008
S3150000493482F87A1082F87B30024A1360704700BF0F
S3150000494469360020103A0020F8B50D468C680A68CE
S3150000495406462849202002F0D0FD6B687BB926491B
S31500004964202002F0CAFD202009F0E8FF2349202078
S3150000497402F0D8FDBDE8F840202009F0DFBF002E84
S31500004984F1D01F4D1F4E204F013C14F8013F23B9AF
S315000049941A49202002F0C6FDE5E7752B18D0762BC0
S315000049A418D0772B18D0732B18D0722B18D0712BE4
S315000049B418D0622B18D06E2B18D02A2B18D0134976
S315000049C4134A212B18BF1146202002F096FDDCE77E
S315000049D42946F9E73146F7E73946F5E70D49F3E79E
S315000049E40D49F1E70D49EFE70D49EDE70D49EBE711
S315000049F40D49E9E76DB10300F5800300A6800300C5
S31500004A04B3800300A7800300BE800300FF80030079
S31500004A14FC800300CA800300D4800300DF80030007
S31500004A24EA800300F4800300F9800300F0B5002651
S31500004A34204A92F87B30184452FA80F090F865C008
S31500004A4490F8665030461C4BA5EB0C051F78EDB26A
S31500004A54F4B2A54225D90CEB060313445B7811B1D5
S31500004A640CB92D2B17D0782B1FD0582B05D108B194
S31500004A7437240AE0013C012C14D9602B17D8402BAB
S31500004A84F6D83A2B34BF302400241B1BDBB29F42DA
S31500004A9403D900FB07300136DAE70523002082F844
S31500004AA47930F0BD10270020F5E70028E2D057241E
S31500004AB4EBE700BF693600200E220020FFF72CBF6B
S31500004AC4034B93F8770093F87B30C01AC0B2704753
S31500004AD4693600200021FFF7A9BF000010B50A4B74
S31500004AE493F87B20024453FA82F292F86520134429
S31500004AF45C78A4F12D0359425941FFF797FF2D2CF9
S31500004B0408BF404210BD00BF6936002030B50C4ACC
S31500004B1492F87B300344C043DBB2C00F39B1D518D9
S31500004B2495F8664095F86550641B241A0C7042FA91
S31500004B3483F393F865301844024B184430BD00BF24
S31500004B44693600206A3600202DE9F34115460F46E2
S31500004B540DF107011C46FFF7D9FF9DF80730804683
S31500004B64AB4288BF8DF807509DF807600CB1AC1BAB
S31500004B74E4B222460021384631F011FC3246414661
S31500004B84381931F0F3FB304602B0BDE8F08138B590
S31500004B940C4601230822FFF7D7FF04F10803621E1F
S31500004BA4043413F8011D12F8015FA3421D7011703D
S31500004BB4F7D138BD38B5054601460120FFF7C4FED6
S31500004BC4D5E901436CB91C46084D236863B12946EF
S31500004BD4202002F092FC21460020FFF7B5FE0C349B
S31500004BE4F3E71B786E2BEFD038BD00BF51CC030022
S31500004BF408B50449202002F080FCBDE808402020C6
S31500004C0409F09CBE6780030038B5FFF7F1FF002466
S31500004C14054D61190C34631953F80C3C03B938BDBE
S31500004C240020FFF791FEF4E7CC8D03002DE9F84F41
S31500004C341F4B204D53F820201F49202002F05DFC15
S31500004C442B681BB9BDE8F84FFFF7DEBF1B4FFFF714
S31500004C54CFFF0026B946DFF86CA097F87B30F4B294
S31500004C64013B9C4204DB2868BDE8F84FFFF7A2BF6E
S31500004C7447FA86F393F8658000234C44C84494F8B5
S31500004C84662094F8651003F1010B521ADBB2D2B216
S31500004C94934205D30A49202002F02FFC0136DCE7B3
S31500004CA443445A785146202002F027FC5B46E6E747
S31500004CB4B01D0020103A00206280030069360020EF
S31500004CC452CC030060CF03002DE9F74F884C94F8CB
S31500004CD47730002B00F0A180864B671C1B7813F0FD
S31500004CE4010F1FD00025844E14E0631993F8662043
S31500004CF493F865302020D21A44FA85F393F86510A8
S31500004D04D2B2394409F015FE3146202002F0F5FBF3
S31500004D140135EDB294F87730AB42E6D877492020D6
S31500004D2402F0EBFB002694F87730DFF8DCE1019320
S31500004D34734B4FF00008714645461EF8012B91F857
S31500004D4401C007EB020AACEB020C5FFA8CFC186894
S31500004D54002852D00138D14619E02AB9002D4AD08C
S31500004D644FF001080C33F2E719F8011BA1F1410BCE
S31500004D74BBF1190F98BF2031A2F1410B98BFC9B2FC
S31500004D84BBF1190F9CBF2032D2B28A42EAD1A9EBF9
S31500004D940A01614510F8012FDFD1002ADED11D4634
S31500004DA4584B01361D6094F87B30F6B2013384F813
S31500004DB47B30D5E90123002A35D01B786E2B31D000
S31500004DC43F2B23D04FF000094FF0070BC8460423AE
S31500004DD494F87710AA68B14212F808702BD8AFB1CC
S31500004DE4904498F801302A2B10D0212F1CBF03239E
S31500004DF484F879300AE01D46B4E7B8F1000F01D112
S31500004E04002DCDD10223002584F8793094F8790059
S31500004E14002869D168680CF0F1FC03B0BDE8F04FD6
S31500004E24FFF77ABD1346019AB24282D803221D4681
S31500004E3484F87920EAE7732F09D8712F0BD2212F32
S31500004E441FD0622F3CD0002F4BD1032246E0A7F19E
S31500004E547502022A45D8752F29D0762F2AD0732FAA
S31500004E642BD0722F47F6FF7A18BF4FF0FF3A012175
S31500004E7448460193FFF7DAFD5045019B01D984F8B2
S31500004E847930AA68424452782A2A94F879201CBFB9
S31500004E9408F101085FFA88F8002AB7D1212F1FBF4D
S31500004EA4013609F10109F6B25FFA89F990E74FF084
S31500004EB4FF0ADCE74FF6FF7AD9E74FF07F0AD6E719
S31500004EC494F87B204A4454FA82F292F865202244EC
S31500004ED45278222AD5D07B2AD3D0052284F8792089
S31500004EE4CFE784F879B0CCE7FFF7A0FE95E700BFDB
S31500004EF4693600201337002052CC0300A480030037
S31500004F04CC8D0300103A0020CE3600202DE9F34163
S31500004F1406460D464FF000085C4C5D4F66B90DF130
S31500004F240701284609F0FEFC78B1262800F0A9807E
S31500004F34012384F879304BE0002D00F0A28016F8A6
S31500004F44013B013D8DF80730EDB23A789DF8073004
S31500004F540D2A3B7001D10A2BE0D00D2B0CD0A3F106
S31500004F640A025142514122788846042AD6D8DFE8FB
S31500004F7402F0051D263C31000121F4E721B1FFF7BB
S31500004F84A3FE4FF00108C9E7202B63D0222B07D1DB
S31500004F940223237094F87820642A5DD10623C8E797
S31500004FA47B2B01D10323F4E70123F2E709B9202B74
S31500004FB4F0D194F87730112B3FD10323B9E7222B94
S31500004FC4F7D00029E6D005234FF0010884F879309C
S31500004FD404232370B8F1000FA0D094F8790008B127
S31500004FE4FFF724FEFFF798FC98E77D2B94F87A00E8
S31500004FF403D1FF28DDD005239BE7602B13D8402B74
S3150000500413D8392B8CBF002230229A1AD2B20F2A17
S3150000501410D8FF280BD0FF2302EB00128DF80720CF
S3150000502484F87A30B6E75722EFE73722EDE784F8BB
S315000050347A2073E7202BDED170E70133DBB294F8D4
S31500005044782084F87730234483F86520002323707E
S31500005054002994D1884661E72378012B09D19DF86C
S315000050640730A3F1410119299CBF2033DBB28DF827
S3150000507407309DF80710A3180132597084F8782078
S315000050844CE7404602B0BDE8F08100BF6936002017
S315000050946537002049BA89B24840C0F3031141403C
S315000050A4080380B24840C3B280EA431070471BF03D
S315000050B40BBE70477047704770477047704770471C
S315000050C470477047704770477047704700207047B5
S315000050D470470020704770477047002070470020D3
S315000050E4704770470120704701207047704770472A
S315000050F47047704770477047704700002DE9F047C6
S315000051040024204DDFF89C90DFF89CA05FFA84F819
S3150000511440461CF019FEFF2806460CD122461A49C1
S31500005124287802F0FFF92878013409F007FC152CD9
S31500005134ECD1BDE8F087154B47B213EA270338BF15
S31500005144534659F824201249287802F0EBF9002F27
S31500005154E9DA14B1B8F1030F08D10E4B16F0010FBA
S315000051640D49287818BF194602F0DCF90A2CDAD161
S315000051740A4B16F0010F0A49287818BF194602F09F
S31500005184D1F9D0E74E2200201D820300A680030039
S3150000519445820300E0810300F681030008820300D0
S315000051A4128203008C81030057CA030082B2074BA4
S315000051B44AB1000C1A8008BF4FF6CE22044B14BF26
S315000051C418801A8070474BF6EF62F2E7D42100206C
S315000051D4D6210020094B1888020448BF80F06200DB
S315000051E442001A80064A1388190444BF83F4805384
S315000051F483F00B035900118058407047D4210020D6
S31500005204D62100200022034B1870034B1970034B60
S315000052141A7070475B3600205A360020603700202B
S315000052242DE9F04F214E85B0337807468846002B8A
S3150000523439D04FF6FB73984235D81D4B4FF0000B0F
S315000052449A461C4D2C7832785FFA8BF94A451878C1
S3150000525411D9484402A9C0B2019327F02DF80822B7
S3150000526441460DEB020031F067F80BF1010B019B8F
S315000052740028E8D14C462B78A34207D1631C327828
S31500005284DBB29A422B7004BF00232B709AF80030CD
S3150000529441461C44E4B2204627F04CF918B9394675
S315000052A4204626F0D7FF05B0BDE8F08F5A36002019
S315000052B45B36002060370020024B187800F07F0030
S315000052C4704700BFD4370020034B18780130C0B2B2
S315000052D4187000F07F007047D43700201FB5030A0A
S315000052E48DF80E300323009303AB8DF80D0000F008
S315000052F4C7F905B05DF804FB1FB58DF80F1004213E
S31500005304030A8DF80E30009103AB8DF80D0000F002
S31500005314B7F905B05DF804FBF0B589B01768BDF8B8
S3150000532438509DF83C60CDF8097057688DF81250D6
S31500005334012E4FEA1525DDF840C0BDF84440CDF8EE
S315000053440D708DF811308DF813508DF8146016D049
S31500005354032E1BD1DCF80030CDF81530DCF8043010
S31500005364CDF819309DF848308DF81D30162300937A
S31500005374BDF84C2002AB00F083F909B0F0BD8DF8FE
S315000053841540240A8DF816400F23F0E70120F4E7B0
S315000053941FB50C46194602238DF80D2000930A46C4
S315000053A403AB0146204600F06BF904B010BD10B5FE
S315000053B41C460B6886B0CDF80D304B688DF8152069
S315000053C4CDF811300A2322460093342103AB00F0B2
S315000053D457F906B010BD000030B5002485B0ADF80D
S315000053E40A20021D92B2012A1D46ADF80840ADF806
S315000053F40610ADF8044003D94FF6FF72904207D168
S31500005404064A2B46127801A924F0E2FF05B030BD06
S31500005414014601AA204625F0A1F8F7E75522002007
S315000054242DE9F04F834689B00C461F4690463AB3A1
S3150000543410461DF081FBC0F3470A1FB338461DF022
S315000054447BFBC0F34709FFF73FFF4FEA1B238DF8A9
S3150000545418008DF81B400022240A062106A88DF8A0
S3150000546419B08DF81A308DF81C408DF81DA01DF06A
S3150000547477FCADF8160038B9182009B0BDE8F08FEE
S315000054849246DAE7B946DEE74FEA4A01CBB2DC1DBB
S31500005494E4B204EB4901C9B20DF1160001931DF003
S315000054A452FE0028E8D10646F2B29245BDF81630FF
S315000054B415D801994A46063101F0FE0118461DF039
S315000054C4B3FE0026F5B2A945BDF816802AD8434690
S315000054D4BDF8482006215846FFF77EFFCDE7550064
S315000054E4EDB229464046039302921DF089FE029AC4
S315000054F4039BD11C4900024601F0FE0118461DF02B
S3150000550493FEBDF81630691CC9B2404602931DF0DD
S3150000551477FE029BE91D0246C9B218461DF084FEB9
S315000055240136C1E76D00EDB2294638461DF068FE26
S315000055342146024640461DF077FE691CC9B238462C
S31500005544BDF816801DF05CFE611C0246C9B24046D9
S3150000555402341DF069FE0136E4B2B3E7F0B589B052
S315000055640E4602A905460AF077FE002800F081805F
S31500005574FFF7AAFE8DF810001CF0C4FD8DF811008B
S315000055841CF0C0FD3D4A000A13688DF81200CDF8E0
S31500005594133053680F21CDF81730BDF808300022B8
S315000055A48DF81C301B0A8DF81D309DF80D3004A8AB
S315000055B48DF81B508DF81E301DF0D2FBADF8060099
S315000055C4002858D000279DF80D30FAB2934207F10F
S315000055D4010718D801230DF10E011A460DF1060034
S315000055E41DF0FAFB00279DF80E30FAB2934207F13C
S315000055F4010723D8BDF80630324620210020FFF7E4
S31500005604EBFE09B0F0BD002128460AF051FE012345
S315000056148DF805001A460DF1050104460DF1060044
S315000056241DF0DAFB0123240A1A460DF105010DF1DA
S3150000563406008DF805401DF0CFFBC4E7012128467E
S315000056440AF036FE01238DF805001A460DF1050110
S3150000565404460DF106001DF0BFFB0123240A1A4679
S315000056640DF105010DF106008DF805401DF0B4FBA2
S31500005674B9E7A320C5E71820C3E700BF28400020E8
S315000056842DE9F0411C460E4617469DF8188005463E
S31500005694FFF71AFE00222070414620461DF060FBEB
S315000056A4034630B13A4631462846BDE8F041FFF795
S315000056B493BE1820BDE8F08108B5FEF7B3FF0EF0DF
S315000056C45FF9BDE8084005F03FBD08B5FFF7CEF821
S315000056D40EF080F905F0F8FEBDE8084007F00AB8B8
S315000056E408B5FFF7C4F8BDE8084007F081BAFFF72C
S315000056F4F2B8FFF7F6B80020704738B504460D46F1
S31500005704FFF706F929462046BDE8384009F0D0BD22
S31500005714FFF7E9B8FFF7F2B84022032101200EF0A3
S3150000572469BE0122032110460EF064BE0022032145
S3150000573401200EF05FBE0222032101200EF05ABEA4
S3150000574400224FF4A06109200EF054BE01224FF44A
S31500005754A06109200EF04EBE0122002109200EF0A0
S3150000576449BE002307B5CDE90033012369464FF04E
S31500005774FF308DF8023010F0ADFB003018BF012069
S3150000578403B05DF804FB0120704701207047012037
S31500005794704700002DE9F74F07460D461446994613
S315000057A44FF0010BDFF8708003F10C0A15B903B052
S315000057B4BDE8F08F102D2E4628BF10264946154AFF
S315000057C4F3B251F8040B514542F8040BF9D1019395
S315000057D49AF8001010481170002288F80F4088F8D3
S315000057E40E2088F800B026F041FF3A4601340B48F3
S315000057F4019BE4B212F8011B10F801CF81EA0C01F7
S3150000580402F8011CD11BC9B29942F3D3AD1BADB248
S315000058141746CBE717370020163700201537002028
S315000058242DE9F04F85B002930F9B80460193034602
S315000058341646BDF83890344A0D4600F10C0153F86B
S31500005844040B8B4242F8040BF9D11B784FF0020A81
S31500005854137049232D4C237020464FEA1923A37352
S3150000586484F80F90A34626F001FF5246237883EA74
S315000058741623237063787340637000271EE0C2F119
S315000058841001F31B89B29BB28B4228BF0B462946F3
S31500005894501B03900398A1EB050C1FFA8CFC081807
S315000058A49C45C0B21AD31A44D2B21F44102A1D44CE
S315000058B4BFB203D1204626F0D9FE0022B742DED37A
S315000058C412B1584626F0D2FEBAF1010F4FF000028B
S315000058D4029D4E460BD04FF0010ACEE711F801CBDC
S315000058E41BF800E08CEA0E0C0BF800C0D2E7074B5D
S315000058F401991B6801980B604346042105B0BDE875
S31500005904F04FFFF747BF00BF1737002016370020B8
S31500005914F7B5099FBDF820400646CDE900471D4668
S31500005924FFF77EFF2CB13346012221462846FFF7B6
S3150000593431FF002003B0F0BD2DE9F7431E460546AE
S3150000594488469146BDF828700D4C034639463046C4
S315000059540122FFF71FFF33464A4641462846CDE952
S315000059640074FFF75DFF042221460B9830F0E4FC37
S31500005974002814BF7E20002003B0BDE8F08300BFDA
S315000059846436002073B51C46044D8B181E59CDE9A8
S3150000599400452E60FFF7D0FF02B070BDAF37002080
S315000059A400207047002070470020704770477047FA
S315000059B4F7B50024094E0A4F0A4D56F8243003B9A8
S315000059C43B6835F814200849009201202246013428
S315000059D40CF0F0FE292CF0D103B0F0BDF02000202D
S315000059E4A4210020383E00208998030008B5FFF75B
S315000059F4DFFFBDE8084000F0F1B8000007B500205D
S31500005A04FFF768F8C2B2282A0DD8084B53F822309B
S31500005A140BB9074B1B680749012031F81210009196
S31500005A2405490CF0C7FE03B05DF804FBF020002026
S31500005A34A4210020383E002089980300FFF7B8BF50
S31500005A447047000038B50020FFF744F804460120EB
S31500005A54FFF740F80546054901200CF0ABFEA9B254
S31500005A64E0B2BDE8384000F0D1B800BF9498030016
S31500005A74F7B50024094E0A4F0A4D56F8243003B9E7
S31500005A843B6835F814200849009201202246013467
S31500005A940CF090FE292CF0D103B0F0BDF0200020CC
S31500005AA4A4210020E63D00208998030073B502ABCB
S31500005AB403E906000446019D1BF06EFF06462046D8
S31500005AC41BF078FF9DF800008EB1202C0FD82B78A0
S31500005AD4012B37D84FF6FF75394903EB431323449B
S31500005AE431F81320AA4202D0013221F813204FF6CE
S31500005AF4FF72344B344933F8146031F8145096422B
S31500005B041CBF721C23F8142004F0FD02092A31D1AB
S31500005B149A8A898A02448A42B4BF9A82998233F85D
S31500005B241430AB4204D3AE4202D22046FEF7A7FE9F
S31500005B340025264BEA5CA24228D00135112DF9D165
S31500005B4402B070BD022BD2D14FF6FF714FF6FF752E
S31500005B541B4B33F814208A421CBF013223F814204D
S31500005B6404F1210233F81210A9421CBF013123F8B3
S31500005B741210BCE71D2CD2D15A8F1118A942BDBFF1
S31500005B8402F1FF3212185A875D87C8E718F05FFEE4
S31500005B940F4B04461B78834203D8DD210D4800F0E1
S31500005BA431FA4FF6FF710C4A04EB04142C4432F814
S31500005BB414308B42C4D0013322F81430C0E700BF3E
S31500005BC48A3E0020383E0020E63D0020009C03006B
S31500005BD42C2200207C9B0300C43D0020522200217D
S31500005BE4014830F0DCBB00BF383E00205222FF21C2
S31500005BF4014830F0D4BB00BFE63D002008B5FFF7EE
S31500005C04EDFFBDE80840FFF7F1BF0000014B23F8A4
S31500005C1410107047E63D0020032310B50F4C1022E8
S31500005C24C4E904330E4B0F49E3610023A1612166E5
S31500005C340D49E01DC4E919120C49A3626362E362CB
S31500005C442367E3666367226230F008FF084920464B
S31500005C5430F004FF2023A37110BD00BF00380020DC
S31500005C6449360020119C0300393600201A9C030093
S31500005C741E9C03002DE9F84F1F4B16461A788146E1
S31500005C848A4698460AB9FFF7C7FF182707FB09870C
S31500005C943D6FD7F86CB05D452BD9BC6E796E641B2D
S31500005CA4B44228BF344629445046224630F053FBBA
S31500005CB4BB6E2544AB4208BF0025A244361BABEBA2
S31500005CC4050B5E4528BF5E4656B1182303FB0983C0
S31500005CD4596E32462944504630F03DFB344435442F
S31500005CE424B1182303FB0988C8F870502046BDE880
S31500005CF4F88F0024E3E700BF00380020F8B5044617
S31500005D040E46174603F0A3FF3A460546314620469B
S31500005D14FFF7B0FF0446284603F09FFF2046F8BD70
S31500005D242DE9F843124D1E462B78814688461746C0
S31500005D340BB9FFF771FF03F08AFF00244FF0180C2C
S31500005D4469690CFB04535A6E2AB10134A142F8DC8A
S31500005D544FF0FF3407E0A142FADDC3E918989F66C5
S31500005D641A67DA665E6703F078FF2046BDE8F883B3
S31500005D7400380020FFF750BF70B54FF060441A4B4F
S31500005D8400261A68194D42F001021A60DA680C20DE
S31500005D9442F08072DA60164BC4F8B03F0223C4F8AE
S31500005DA4006EC4F8806EC5F8F03003F059FC114B50
S31500005DB400F5D52000F2FC40B0FBF3F00E4A0F4B81
S31500005DC401382861C4F8406E1A600D4BC4F8803E51
S31500005DD44FF48073C5F80433D4F8003E43F480735B
S31500005DE4C4F8003E70BD00BFF0ED00E0000004E022
S31500005DF455CEACC5F8590D00FF030040001000E075
S31500005E040D00010010B501240F4B00201C6003F0A7
S31500005E14BBFF234604220321002004F011F8204688
S31500005E240FF0E4FCFFF7A8FF0FF0E1FC074B1C7032
S31500005E34FFF7A0FF2346402205490648FFF770FFF7
S31500005E44054B1860C00F10BD44D40340EA36002049
S31500005E546F370020259C03001820002038B5194C04
S31500005E6403F0F5FE2378022B05BF03230025012545
S31500005E74237003F0F2FE25BB4FF06043D3F8802E67
S31500005E84D10711D510490A6822F440620A60D3F892
S31500005E94802E22F00102C3F8802ED3F8802E12023F
S31500005EA4FBD4642018F037F80023084AC2F8F0300F
S31500005EB4C2F80433A2F54432A2F504721360012336
S31500005EC4237038BDEA360020001000E0000004E02C
S31500005ED4024B1868003018BF01207047F0ED00E04F
S31500005EE4D123054A037013784170090A8170591C3D
S31500005EF4C370117004207047B43700202DE9F74FA2
S31500005F040E788346042E0F4661D918F0B1F8DFF8EF
S31500005F14C48082464FF6FF710024C146751DEDB25A
S31500005F24D8F800305BB1A54209D9019118F0A0F860
S31500005F34A0EB0A0080B2B0F5FA7F019907D9281BB5
S31500005F4418BF012004233B7003B0BDE8F08FB4B33F
S31500005F54012C37D0EA1E631C9442DBB21CD1CCB2AE
S31500005F644FF06042D2F8800EC00713D51046D9F818
S31500005F740CC04CF0807CC9F80CC0D0F800CE4CF4B0
S31500005F84807CC0F800CED0F820C0BCF1000FEED063
S31500005F9482F820401C46C3E7AA1E944202D1C1F3EC
S31500005FA40724DDE76A1E94420FD05C4414F8024CC1
S31500005FB401932046FFF76EF8019B0146D0E75B2468
S31500005FC40123CDE734460223CAE75D24C8E700204F
S31500005FD4B8E700BFF0ED00E000B5084B91B04022F1
S31500005FE469461868FFF78AFE20B1C2B269461220D4
S31500005FF40FF0ACFB11B05DF804FB00BF18200020C5
S3150000600442DE704738B504460D4600F001FD03F044
S3150000601416FE294620460FF065FB2B462246054907
S31500006024012008F091FC29462046BDE83840FFF7D8
S31500006034E7BF00BF359C03006D4B2DE9F0415A685C
S315000060446C4CA2655A6AE2656B4AD2F80012216664
S31500006054D2F8042262669A6AA266DA6AE2661A6B61
S3150000606422675A6B6267A26BDB6B12F0040FA3679D
S31500006074D4E90F5318BF1D4617F09EFF0022854230
S315000060840346606522655DD35C4A95425AD8AA697F
S315000060946264E969A164B4F85810C1F308010629D9
S315000060A454D157498A4251D356498A424ED211880D
S315000060B44DF64262914249D140F201706268C4F8D9
S315000060C49420A268C4F898204F4A5049934238BF96
S315000060D413460A468B423CD3D31AE3640023C4E92D
S315000060E41F33C4E92133C4E92333484E444FDFF850
S315000060F414C1AE4233D8D4E91FC7D4E92165D4E923
S3150000610423124FF0000E013BDBB2FF2B42D1BEF14E
S31500006114000F05D0C4E91FC7C4E92165C4E92312E9
S31500006124B4F85830C3F30803052B57D03CD8032BD7
S3150000613447D0042B58D040F60722013B4B2B98BF7F
S31500006144104640E000221D46C4E911224FF42060A7
S31500006154BAE71E68B6F1CD3FBED10433BAE756F8A6
S31500006164042DBA42C5D36245C3D2D107C1D5002195
S3150000617404EB010EDEF87CE09645BAD0043118290A
S31500006184F6D10BB9052301E0013BDBB204EB830135
S31500006194CA67AEE7E0464FF0010EBC4637462E46C8
S315000061A40D4611464246AEE70C2B1AD03B2B0CD0BB
S315000061B4062BC0D140F60423B0F5206F08BF18465D
S315000061C401E040F60120BDE8F081114B9B6913F014
S315000061D4020F40F2025318BF1846F4E740F60320B4
S315000061E4F1E740F60520EEE740F60220EBE700BFB4
S315000061F400ED00E00000002000E100E0E0170020D0
S315000062044C430000A87F03009C00002000180020D7
S315000062140080014A10B504F0DBF9044604F0D0F915
S315000062240022012101FA02F3234014D01B4B33F858
S3150000623412301B4A062B13D040F207218B420DD194
S31500006244184919480C68844208D14CF23C334B80F7
S315000062540B88138012E00132102AE3D1104AF8E7C2
S315000062644FF20F010F4B5888884214D11988B1F5A3
S31500006274406F10D211804CF23C325A80084B1A8877
S3150000628440F201739A4201BF084B094AD2E9000160
S31500006294C3E9000110BD4FF4C061EBE7489C03005D
S315000062A4123400200000002007020FF0382F0020CF
S315000062B494000020014B1888000A7047123400200D
S315000062C4014B1888704700BF123400202DE9F04FA7
S315000062D44D4C0546A36BD4F850B05A0747BF002768
S315000062E4B846D4F84CB0D4F85480D4F840A05DBF76
S315000062F4464FD4F83CA0DFF83C91DFF83C9113F00C
S31500006304080F434B434A18BF1A46B7EB08061FBF8C
S315000063146421730801FB0B33B3FBF6F387B01CBF90
S315000063249BB205933C494B46CDE9017ACDF80080F2
S3150000633408BF059601F0F6F8B3B2CDE900931FFA4B
S315000063448BF2059B3549284601F0ECF8A36B5B07F5
S315000063540AD49C3E5E4507D1626D314B9A4203D204
S315000063643049284601F0DEF8BA4501D8C24504D2C0
S315000063744A462D49284601F0D5F8284608F0DEFAA3
S31500006384236E0BB9636EBBB32849284601F0B5F8F2
S3150000639400260127DFF8A480DFF8A490226E07FA0E
S315000063A406F3134207D058F8262013781BB1494642
S315000063B4284601F0A2F80136202EEFD10026012747
S315000063C4DFF87880DFF87890626E07FA06F31342F6
S315000063D409D008EB8603D3F8802013781BB149460D
S315000063E4284601F08AF801361D2EEDD1284607B05D
S315000063F4BDE8F04F01F090B828460D4907B0BDE856
S31500006404F04F01F08FB800BF0000002000180020F4
S315000064144F9F0300569F03005E9F03008C9F03005B
S315000064249C000020C59F0300F19F03000FA00300FA
S315000064343EA003004A9F0300D9B9030054A00300F9
S315000064446CB103002DE9F8430446FFF739FF40F623
S315000064540123984239D010D840F2025398421DD0F5
S3150000646440F20173984224D040F20153984213D16A
S315000064746549204601F056F822E040F60323984287
S315000064846CD03DD340F60423984200F09C8040F63D
S315000064940523984200F0B580BDE8F8835B492046A1
S315000064A401F040F85A4B5B495A6C204601F03AF821
S315000064B406E0574A5849D2E92523204601F032F826
S315000064C42046BDE8F84308F039BA514D53492046F1
S315000064D401F028F895F86C309F0703D550492046FB
S315000064E401F020F895F86F305E0603D54D49204635
S315000064F401F018F895F96F30002BE1DA4A49B8E74C
S31500006504434D4A49204601F00DF895F8683098073E
S3150000651404D06A6C3F49204601F004F895F96830C6
S31500006524002B04DA6A6F4249204600F0FBFF00267E
S315000065340127DFF80881DFF81491AA6E07FA06F33B
S31500006544134207D058F8262013781BB14946204633
S3150000655400F0E8FF0136082EEFD1B1E72C4D35499E
S31500006564204600F0DFFF2B496A6C204600F0DAFF74
S3150000657495F86930590703D52F49204600F0D2FF14
S3150000658495F96930002B04DA6A6F2949204600F030
S31500006594C9FF0826294FDFF8B480AB6EF340DA074B
S315000065A407D557F8262013781BB14146204600F03C
S315000065B4B9FF0136102EF0D195F86830002B7FF420
S315000065C47FAF1F4955E7124D1E49204600F0AAFF2A
S315000065D46A6C1049204600F0A5FF1026174FDFF815
S315000065E46C80AB6EF340DB0707D557F8262013788B
S315000065F41BB14146204600F095FF01361A2EF0D114
S315000066045EE711494BE700BFD99C0300169D0300C2
S3150000661400000020469D03005F9D0300799D030052
S31500006624919D0300CB9D0300FE9D03003A9E03004B
S315000066345F9E0300839E03009A9E0300689C0300EA
S31500006644E09E0300109F0300299F03007B9E030026
S315000066542DE9F84F06460025154C164FDFF85C80E9
S31500006664DFF85CA023785FFA85FB0BB9BDE8F88FE9
S3150000667457F8043B22461049304600F03EFF227884
S3150000668404F1010982B9627882B10BF0030103298E
S315000066940CBF41465146304600F02FFF304608F005
S315000066A44DF901354C46DDE74C46E8E74146F2E74D
S315000066B448A1030004000020D09C0300A48003002A
S315000066C468BC030000F00CB800F00AB800F008B883
S315000066D400F006B800F004B800F002B800F000B804
S315000066E472B61EF0080F09D01EF0040F0DD0DFF8A5
S315000066F450E0AEE8FF1F6FF002000CE0DFF840E068
S31500006704AEE8FF1F6FF00E0005E0DFF834E0AEE8F8
S31500006714FF1F6FF006006946EFF309828EE8070053
S3150000672486460848084C854501D3A54501D384F31C
S315000067340888FFF781FC84F3088817F019FC000029
S3150000674404000020E00E002000180020FFF7C6BF5A
S315000067547047000000F07E63B3F17E6F70B50546A6
S315000067640E46144616D106F01FF918B19A210D48A3
S31500006774FFF748FC22463146C5F30B0003F0E4FF5D
S31500006784044606F01FF95CB19D21BDE8704005483A
S31500006794FFF738BC520817F089FB08B18F21F4E7DC
S315000067A470BD00BF68A8030037B57F2A14BF15461D
S315000067B400254BF234629142044619D17F2241F2FC
S315000067C4020168460823FFF7EFFF082226496846B8
S315000067D42FF0B2FD30B908237F2241F2F01168464A
S315000067E4FFF7E2FF6B4603CB2060616003B030BD68
S315000067F441F2F012914219D11C4901388A6CC96CD4
S315000068041D1F002BF2D0013B9D4200F8012F4FEAD9
S315000068141222F6D1002203349A42E7D00132042A26
S3150000682404F8011F4FEA1121F6D1DFE701F47042A3
S31500006834B2F5805F0BD11A46C1F30B0404F17E64F2
S3150000684403FB054103B0BDE830402FF084BD01F4DD
S315000068546042B2F5005FC9D1C1F30B0404491A467C
S31500006864214403FB0511EDE7E2A803000080E00FD5
S3150000687400E0070070B5054616461C46DBB14BF230
S315000068843463994210D1082C28BF08247F2241F290
S3150000689402012346FFF788FF2246074928462FF0C0
S315000068A44BFD40B941F2F011234632462846BDE875
S315000068B47040FFF779BF70BDE2A803002DE9F743E6
S315000068C40446E0070F46154603D5DD213448FFF795
S315000068D499FBE90703D5DE213148FFF793FB04F45E
S315000068E47043B3F5805F3ED1C4F30B0404F17E64B8
S315000068F46B1E2C4A23449342264603D9E321284897
S31500006904FFF780FBDFF8989006EB050846453DD176
S31500006914A2070ED04FF6FF7337F8022B02A943EAFB
S315000069240243A01E41F8043D0422FFF713FF02347C
S31500006934023DAB070ED0023D25F00103FB5A02A926
S315000069446FEA03436FEA1343042241F8043D6019D6
S31500006954FFF700FF25B12A4639462046FFF7FAFE1F
S3150000696403B0BDE8F08304F46043B3F5005F05D1DA
S315000069740D4BC4F30B041C442646C3E7EA2108481E
S31500006984FFF740FB6FF00F060024BBE716F8013B48
S31500006994FF2BBBD0F4214846FFF734FBB6E700BF14
S315000069A468A80300FF1FE00F00E00700FFF78ABE98
S315000069B41FB5144A01AB10685168128903C31A80C3
S315000069C401238DF804300D238DF80A3003230E4C71
S315000069D4082124208DF80B3002F080FF01A92046FF
S315000069E404F027F94FF40061022342F21800074A23
S315000069F4C2F884112350516041F21C02A35004B022
S31500006A0410BD00BFEAA803000080014A00E100E0CF
S31500006A14014804F0FDB800BF0080014AA52803D14F
S31500006A240021024804F0E5B8704700BF0080014A1F
S31500006A34024B586800F00100704700BF0080014A0D
S31500006A44024A536A002BFCD1704700BF0080014AFA
S31500006A5400207047002070477047000007B572B6E3
S31500006A6403F0EDF88D4B8E495B6940228B60002361
S31500006A740B764B768B76F023CB760B774B778B772F
S31500006A84CA77802281F8202081F82130E023602013
S31500006A9481F82230834B81F8232083F8002383F87E
S31500006AA4012383F8022383F8032383F8042383F85A
S31500006AB4052383F8062383F8072383F8082383F83A
S31500006AC4092383F80A2383F80B2383F80C2383F81A
S31500006AD40D2383F80E2383F80F2383F8102383F8FA
S31500006AE4112383F8122383F8132383F8142383F8DA
S31500006AF4152383F8162383F8172383F8182383F8BA
S31500006B04192383F81A2383F81B2383F81C2383F899
S31500006B141D2383F81E2383F81F2383F8202383F879
S31500006B242103202083F8222383F8232383F82423B4
S31500006B3483F8252383F8262383F8272383F8282339
S31500006B4483F8292383F82A2383F82B0383F82C0359
S31500006B5483F82D2383F82E2383F82F2383F83023F9
S31500006B6483F8312383F8322383F8332383F83423D9
S31500006B7483F8352383F8362383F8372383F83823B9
S31500006B8483F8392383F83A2383F83B2383F83C2399
S31500006B94CB6823F4E0631B041B0C43F0BF6343F48C
S31500006BA40133CB604B6943F010034B614FF4E02390
S31500006BB44B6204F071FDFFF72DFBEFF308834FF0F2
S31500006BC4CD31394A043B934265D2384A002192B208
S31500006BD437482FF0E4FB62B6684603F0DDFD354B1B
S31500006BE49B6DDB0318D4344A136823F4FF0323F4A0
S31500006BF4FE4343F4BC1343F4A063136052F8043C0D
S31500006C0423F4704343F4404342F8043C52F8043CF2
S31500006C1443F4E06342F8043C9DF80130012B0FD1A4
S31500006C249DF8003063B94FF000531B68234B1B6873
S31500006C34234B1B68234B1B68234B1B68234B1B6886
S31500006C44234AD2F8803043F00303C2F8803005F0BB
S31500006C5494F802224FF040231A6704F087FC01F0EF
S31500006C6489FB002300938DF80430012368468DF8D0
S31500006C74033003F080F800F0F5F817F00BFA05F08E
S31500006C847FF800F0FFF80FF077FB12480EF0B8FD1E
S31500006C9403B05DF804FB1960043B94E70040000070
S31500006CA400ED00E000E100E0A00E0020D00D0000A1
S31500006CB4A000002000C0004034C000400040002076
S31500006CC40080002000C000200000012000400120B8
S31500006CD400800040BCD3030040F2016017F048B9BD
S31500006CE404F041BC04F040BCFEF760BE08B50021C8
S31500006CF40B20FEF759FEBDE80840FEF758BE08B162
S31500006D04FDF708BEFDF705BE032000F09FBA00009C
S31500006D1408B5FFF7CFFA044B0B289ABF00B203EB72
S31500006D248000184608BD00BF34AA030008B5FFF763
S31500006D34C7FA044BC0F30F2253F82230C0B203EB58
S31500006D44800008BD04AA030010B5FFF7B3FA044691
S31500006D54FFF7B6FAC0B228B9012C24D164F07F0437
S31500006D64E4B216E0072CF9D801A353F824F000BFC7
S31500006D74976D0000616D0000956D00009B6D00002D
S31500006D849B6D00009F6D0000A36D0000A76D0000C1
S31500006D940924204610BD0224FBE70324F9E70B244B
S31500006DA4F7E70624F5E70446F3E700BF38B50D46D2
S31500006DB4044688BB284B4A1E186050425041013D88
S31500006DC408F02AF8032D46D8DFE805F002131E2042
S31500006DD401210846FDF79FFDFFF72AFE1F4B187099
S31500006DE410B1A520FFF71AFEBDE83840012008F0CF
S31500006DF413B802210120FDF78EFDFFF719FE50B3EB
S31500006E04BDE83840FFF71CBE0421F3E70521012045
S31500006E14BDE83840FDF77FBD104B1B781BB101213F
S31500006E240F4803F0E6FE631E58425841013C08F041
S31500006E3413F8032C0FD8DFE804F002080A0C01202B
S31500006E4408F00AF801210020E2E70221FBE7042109
S31500006E54F9E70521F7E738BD48320020D13700208D
S31500006E640080014A42F22041044AD2F820341B0C25
S31500006E741B045350024A1360704700BF00C003400E
S31500006E84C42C002008B504F0CBFC18B18C210448AE
S31500006E94FFF7B8F8BDE808400249034804F030BDDE
S31500006EA464AA0300D41D0020002D0020134A1449AF
S31500006EB4D2F82434D2F820241340124A9BB2136029
S31500006EC4D1F80001400102D50868400106D4D1F882
S31500006ED40001800105D50968880102D543F4803391
S31500006EE41360074BD3F80011490506D51B685B05EB
S31500006EF442BF136843F400331360704700C0034075
S31500006F0400E100E048320020012810B50AD0831EB3
S31500006F14012B1CD904281CD0052801D102F014FF2A
S31500006F24002400E0044620460B4A012104F0A8FC94
S31500006F3402F07AFE02F087FE04F008FD02F076FE07
S31500006F442046BDE81040044A002104F099BC0224FE
S31500006F54E9E70324E7E700BFE0AA0300FFF7D4BF8D
S31500006F642DE9F04F89B00EF03FFC0746002840F0AB
S31500006F74DC806F4E6F4D3168286816F095F904462B
S31500006F84002827D033683C46D3E900019A69126881
S31500006F949047336804A89B699B6898473368022026
S31500006FA49B69DB689847326805985368E7B2B3FB78
S31500006FB4F0F3BB42916904F1010442D8CB68002086
S31500006FC4984733689B695B6898473168286816F068
S31500006FD46BF904460026DFF88891002C53D1564BF2
S31500006FE44FEA8608F35C002B31D1A246534BF35C7F
S31500006FF40193534B03EB080B019B5FFA8AF7BB42E1
S31500007004286853D84F4BF35C002B3CD04C4B019F64
S315000070149844FBB27E2B286835D8D8F8003003AAEA
S3150000702407EB030A514602AB16F080FB48452AD00B
S315000070345146286816F0C0FB013704460028E8D0FC
S3150000704421E012680B6907FB00209847ABE73C4B2D
S3150000705403AA53F82670286802AB394616F066FB75
S31500007064484507D078B9039B012B0CD039462868CC
S3150000707416F0A2FB344B394653F8083028681A68D0
S3150000708416F07EFA04460136262EA6D1B4FA84F307
S315000070942E4A5B0913702E4B9C4240D02DD8002CEF
S315000070A432D0013B9C423ED0C5242DE0DBF80030B3
S315000070B403AA1F44394602AB16F038FB48450AD0EA
S315000070C410B10AF1010A97E7039B8BB9214B029A87
S315000070D4F35C9A42F5D01F4B1B4A9B5D52F808207D
S315000070E43946286816F0B2F90028EAD0044689E73A
S315000070F43946286816F060FBEDE7174B9C4210D022
S3150000710404339C42D0D1C1242B681B7C1BB1D321F0
S315000071141248FEF777FF204609B0BDE8F08FC32476
S31500007124F2E7C424F0E7C224EEE7C624F3E700BF7F
S315000071344C1E0020481E002060860300A085030024
S31500007144AC86030086860300C8850300C537002085
S3150000715402E000F04487030004E000F0EAAA03001A
S315000071640BE000F0252970B506460C4615461AD8DC
S31500007174144A127822B3144A1068144A52F8211099
S31500007184134A125D3AB1324616F048FAC0B1BDE868
S315000071947040FDF78EBF7F2D08BF00253246294477
S315000071A416F0A0F9F2E7FF2903D9BDE87040FFF70E
S315000071B461BB40F20111BDE870400648FEF722BFEC
S315000071C470BD00BFC5370020481E0020AC860300F2
S315000071D460860300EAAA03002528F8B504460D468E
S315000071E4164619D81449097829B31449144F08685E
S315000071F4144951F824103C5D3CB1126816F0C0F9EC
S31500007204C8B1BDE8F840FDF754BF7F2D08BF00257F
S31500007214294416F01BF9F3E7FF2805D91A46314627
S31500007224BDE8F840FFF74ABB4FF49A71BDE8F84051
S315000072340548FEF7E7BEF8BDC5370020481E002006
S3150000724460860300AC860300EAAA030008B5084B6F
S315000072541B7863B1074B002253F82010064B1868BD
S3150000726416F01CFA18B1BDE80840FDF722BF08BDA8
S31500007274C5370020AC860300481E002070B51646AC
S3150000728485180AB9304470BD01F00F030A2B34BFC8
S3150000729430243724013A2344090905F8013DD2B2C2
S315000072A4EFE70000F0B5F9B100281CDA2D23B0F1A0
S315000072B4004F137000D04042012115E0801B864226
S315000072C4ECB205F10105F9D904B927B101274D1C22
S315000072D430345454E9B20133092B09D130305054B7
S315000072E40131C8B2F0BD002100231F46DFF808C0F3
S315000072F45CF823600025E2E760AB03002DE9F04F5C
S315000073044FF0000B95B002AC81468A4617461D46DF
S315000073145E46A0463B7863B902ABE41AE4B2224661
S3150000732419465046C847002840F093803444E0B2DA
S3150000733490E0252B13D0BBF1000F14D12370013438
S3150000734412AB9C426DD3A4EB0804E4B22246414638
S315000073545046C84700287CD12644F6B260E0BBF10B
S31500007364000F00D101373B78632B00F092801BD8C5
S31500007374392B09D8302B80F09E80002BCCD0252BBE
S3150000738451D04FF0000BDBE7582B00F08B80622BBB
S31500007394F7D14FF0000B2B6801936B680093009BA9
S315000073A49B4543D10835ECE7702B1ED017D8642BC8
S315000073B401D06C2BE5D16C2B05F1040B28686CD13C
S315000073C47B78752B14BF0121002101D0642B00D1D9
S315000073D401372246FFF766FF04445D46D1E7752B65
S315000073E4E9D0782B5ED0732BCBD1A4EB0804E4B29E
S315000073F4224602A9504605F1040B2D68C84740BB36
S315000074042644F6B2C4B22B5D0130002BFAD12246D3
S3150000741429465046C847E0B95D4683462644F6B237
S315000074244446013776E723700134AAE7019B2046D8
S3150000743413F80B100222FFF721FF12AB9842044601
S315000074440ED3A0EB0804E4B2224641465046C84790
S3150000745418B1002015B0BDE8F08F26444446F6B2B4
S31500007464009B013B5B4582BF20232370013412AB92
S315000074749C420BD3A4EB0804E4B222464146504690
S31500007484C8470028E5D126444446F6B20BF1010B61
S3150000749485E72B6804352370C6E7752B0CBF0021DE
S315000074A4012196E7204602222978FFF7E7FE05F137
S315000074B4040B044691E77A7802F0DF02582A19D1C0
S315000074C4322B07F1010B09D10422204629882F1DEE
S315000074D4FFF7D4FE3D4604465F4652E7342B09D1F6
S315000074E42F1D2D680422290C2046FFF7C7FE04220F
S315000074F4A9B2EDE74FF0010B22E70EB403B503AAD8
S3150000750452F8041B019207F075FDC0B202B05DF893
S3150000751404EB03B0704700000149FFF7EEBF00BF5C
S31500007524A48003000EB433B505AA52F8041B05461D
S31500007534019207F05FFD04462846FFF7EDFFE0B22F
S3150000754402B0BDE8304003B0704708B507F052FDFD
S31500007554C0B208BD2DE9F04F9B46584B85B01B7849
S31500007564064689461546109F9DF844A0DDF85080CE
S31500007574002B00F09280072A00F291800E9B002BCC
S3150000758400F08D800F9B002B00F08980129BB3F5D1
S31500007594006F00F38480012801D1002F7FD0484B6F
S315000075A403EB05131B7B002B7BD0464C10220021DA
S315000075B468462EF0F4FE04EB45141022B9F1000FD0
S315000075C45CD1494620462EF0EAFEA37843F0100328
S315000075D4A370E37843F03003E370BAF1000F03D1EC
S315000075E4DBB243F00303E37036496A01129B885AFF
S315000075F4013B63F30E100E9B01EB020C8852CCF890
S3150000760408300F9B9DF84C10CCF804309CF80330DE
S31500007614012E61F38303CDF800B08CF8033042D118
S3150000762413230CF1100ECCF80C309CE80F008EE8F6
S315000076340F006FF00301DCF81C20B9F1010F61F3B0
S315000076449F02CCF81C20CCF8147004D10F9BCCF804
S315000076540470CCF81830002719492A018B1841F810
S315000076640280159A28465A609F605E7322466946D0
S3150000767402F00CFF384605B0BDE8F08F0021204625
S315000076842EF08DFE1023A3700323E370BAF1000FCE
S31500007694AAD1DBB243F03003A5E70B48EBE70B486E
S315000076A4E9E70B48E7E7B8F1000FD4D19CF80230BC
S315000076B468F304138CF80230CDE700BF3F3700208F
S315000076C498240020C42B0020028000F0018000F0E2
S315000076D4078000F038B5104B05461B78BBB1C0B126
S315000076E402F0B5FA00230D4901EB0312147B3CB9F1
S315000076F42B6001231460137302F0AFFA204638BDE1
S315000077040133082BF0D102F0A8FA0548F7E705483B
S31500007714F5E70548F3E700BF3F370020982400202B
S31500007724048000F0028000F0018000F038B502F019
S315000077348EFA002305460A4AD1180C7B5CB910332D
S31500007744802BF9D102F054FE064B28461C7002F039
S3150000775484FA204638BD284602F07FFA0248F9E743
S31500007764982400203F370020058000F00D4B10B50B
S315000077741B78044693B1072812D802F068FA0A4B1C
S3150000778403EB04131A7B2AB100241C7302F065FA76
S31500007794204610BD02F061FA0448FAE70448F8E707
S315000077A40448F6E73F37002098240020068000F0BE
S315000077B4028000F0018000F0164B13B51868002310
S315000077C401908DF8043002F042FA134B1C7824B170
S315000077D402F043FA114802B010BD01221A7002F0F9
S315000077E43CFA0F4B1C731C7783F82C4083F83C40FF
S315000077F483F84C4083F85C4083F86C4083F87C4003
S3150000780404230DEB03008DF8073002F015FE204625
S31500007814E1E700BF84AB03003F370020038000F09C
S315000078249824002010B588B00E9C009207940D9CF5
S31500007834024606949DF8304005940B9C04949DF8EA
S31500007844284003940024CDE9013420460B46214602
S31500007854FFF780FE08B010BD10B588B00E9C0092EC
S3150000786407940D9C024606949DF8304005940B9CA3
S3150000787404949DF8284003940024CDE9013420465D
S315000078840B460121FFF766FE08B010BD08B50A4B8A
S315000078941B785BB107280BD8084B03EB00131B7B43
S315000078A443B1002102F0B8FD002008BD0448FCE7FE
S315000078B40448FAE70448F8E73F37002098240020F4
S315000078C4028000F0018000F0078000F008B50A4B42
S315000078D41B785BB107280BD8084B03EB00131B7B03
S315000078E443B1012102F098FD002008BD0448FCE7DD
S315000078F40448FAE70448F8E73F37002098240020B4
S31500007904028000F0018000F0078000F008B50A4B01
S315000079141B7853B107280AD8084B03EB00131B7BCB
S315000079243BB102F003FE002008BD0548FCE705480C
S31500007934FAE70548F8E700BF3F37002098240020FF
S31500007944028000F0018000F0078000F00D4B1B78E8
S3150000795493B1072812D889B10B4B03EB00131B7B99
S3150000796473B10A4BDA6A012303FA00F010401ABF16
S3150000797400200B700870704705487047054870472B
S31500007984054870473F370020982400200000044033
S31500007994028000F0018000F0078000F00B4B10B568
S315000079A41B780C4663B107280CD859B1084B03EB76
S315000079B400131B7B43B102F0CBFD2060002010BDF9
S315000079C40448FCE70448FAE70448F8E73F37002090
S315000079D498240020028000F0018000F0078000F067
S315000079E42DE9F843174B1F6D5B6D1F4000D5FEE76D
S315000079F401260025144CDFF85480DFF854903742F2
S31500007A0417D02368C8F800609BB1A1686268013189
S31500007A14A16028469847637B012B0AD148B909EB34
S31500007A244513197B1A7F60F3410160F34102197310
S31500007A341A770135082D4FEA460604F11004DED103
S31500007A44BDE8F88300000440982400205020044038
S31500007A54C42B002070B504460125084E04B970BD38
S31500007A6494FAA4F0B0FA80F005FA00F324EA0304C9
S31500007A7456F82030002BF1D09847EFE7102D002060
S31500007A844FF00072044BC3F880211A604FF08062F5
S31500007A94C3F880211A60704700E100E038B5044657
S31500007AA40D4602F0D4F8034B43F82450BDE83840A1
S31500007AB402F0D3B8102D0020084BD3F82404D3F8D1
S31500007AC42024104042F2204220F42A5020F02A00BA
S31500007AD44004400C9850FFF7BDBF00BF00C00340F0
S31500007AE4084BD3F82404D3F82024104042F2204251
S31500007AF420F4AA4020F055000004000C9850FFF72B
S31500007B04A9BF00BF00C00340104A30B513684161E5
S31500007B141546ABB91060836011E0091B9C6841618E
S31500007B241A467CB123465C698C42F6D9002CF4D003
S31500007B3452B19060836013B15A69511A596130BDCC
S31500007B440022F0E72346F4E72860F3E7F431002047
S31500007B5410B500F01FFB094B094A196831B11368C7
S31500007B64C41A4B69A34203D31B1B4B61106003E089
S31500007B74C01A002310604B6110BD00BFF431002011
S31500007B844C2E002038B50F4D02202B685C690E4B35
S31500007B941B681C4400F032FB204600F003FB002364
S31500007BA40A492A680B70D088800702D501230B7016
S31500007BB438BD9268002AFBD050690344012BF2D9E0
S31500007BC4F6E700BFF43100204C2E00206137002078
S31500007BD470B59DF81450164605710025049A856003
S31500007BE4BDF818500446C5800260C0E903360D4648
S31500007BF429B961610BB11146984796B1354602F031
S31500007C0426F80646FFF7A4FF29462046FFF77CFF21
S31500007C14054B1B68A34201D1FFF7B4FF304602F0BF
S31500007C241CF8002070BD00BFF431002000210C4A6E
S31500007C3413687BB183420AD1836879B18B60836808
S31500007C441BB15A6941690A445A61002070471946B2
S31500007C549B68EEE70028EFD0022070471360EEE73A
S31500007C64F431002070B501F0F2FF144E0546347865
S31500007C74FCB9134B1C60134B1C60134B1C8000F0A7
S31500007C844FFA012000F0BAFA00F006FB0F4B024649
S31500007C94186020B9284601F0E0FF232070BD234672
S31500007CA40B4840F2E7312EF085F90A4B18600123A0
S31500007CB43370284601F0D1FF0020EFE74537002056
S31500007CC4F43100204C2E00200A340020F03100202C
S31500007CD418FCFFFF542E00202DE9F0410546F8B1AB
S31500007CE401F0B5FF0F4F0646FFF732FF2846D7F8D7
S31500007CF40080FFF79BFF044628B1304601F0ADFF34
S31500007D042046BDE8F081A8453B6803D123B1FFF7BF
S31500007D1439FFF2E7002BF0D1022000F07BFAECE702
S31500007D242224EDE7F4310020F0B50D4685B0164661
S31500007D341F46044680B1FFF7CFFFBDF82C30002262
S31500007D4402939DF828302946CDE900732046334630
S31500007D54FFF73EFF05B0F0BD2220FBE738B50C4621
S31500007D64054698B191B100230B7001F070FF012113
S31500007D74074B1B680BB122781AB101F06EFF002085
S31500007D8438BD9D420CBF21709B68F3E72220F7E7BC
S31500007D94F4310020F0B51F46002387B00D46164681
S31500007DA48DF817300446A0B10DF11701FFF7D6FF81
S31500007DB49DF817207AB9BDF83430294602939DF808
S31500007DC430302046CDE900733346FFF701FF07B094
S31500007DD4F0BD2220FBE70320F9E70000F8B50C46C6
S31500007DE40646C8B1C1B101F032FF0546FFF7B0FE41
S31500007DF473692360134B1B68B3420FD023B928461B
S31500007E0401F02BFF03201CE0596922689B680A4491
S31500007E142260F1E700230FE0222012E0276800F039
S31500007E24B9F9094E3368C01A8742F3D900F0B2F99A
S31500007E343368C01A23681B1A2846236001F00DFF15
S31500007E440020F8BDF43100204C2E0020F8B507467A
S31500007E540E4601F0FCFE00240546114B1B6823B9AF
S31500007E64284601F0FAFE1B2015E05A691444DA8804
S31500007E74BA4213D100F08EF90A4F3B68C01AA042E9
S31500007E840AD200F087F93B68C01A201A30602846E7
S31500007E9401F0E3FE0020F8BD0020F7E79B68DEE76B
S31500007EA4F43100204C2E0020014B1878704700BF97
S31500007EB46137002038B501F0CAFE054600F06AF9BC
S31500007EC40446284601F0C9FE204638BD70B501F0C7
S31500007ED4BEFE064600F05EF9094B05461C880120E5
S31500007EE4A4B200F0AFF918B100F054F90546013414
S31500007EF4304601F0B2FE0022214642EA050070BD7A
S31500007F040A340020014B1868704700BFF031002086
S31500007F140A4B10B51B680C4683420CD3084B4FF42E
S31500007F247A7219680023A0FB01012EF043F8013090
S31500007F342060002010BD2120FCE700BF542E002045
S31500007F44F0310020104B10B51A684FF47A73A0FB79
S31500007F540301A2B1531E134211D1B2FA82F2C2F145
S31500007F641F02C2F12004A2F1200301FA04F420FA4C
S31500007F7402F2224321FA03F342EA030010BD00236E
S31500007F842EF018F8FAE700BFF0310020F8B51646CF
S31500007F941BA3D3E900238B4208BF82422AD3174B83
S31500007FA41A684FF47A73A0FB034503FB0155C2B16B
S31500007FB4531E13EA020014D1B2FA82F2C2F11F026E
S31500007FC4C2F12007A2F1200124FA02F305FA07F709
S31500007FD43B4325FA01F10B4325FA02F2C6E90032C6
S31500007FE4F8BD0023204629462DF0E4FFC6E900012A
S31500007FF40020F5E72120F3E7AFF30080F0310020FD
S31500008004EFA7C64B37894100C2072DE9F84F04464E
S315000080140BD53F4A138801339BB21380FFF798FDB3
S315000080243C4B1B680BB1FFF7ADFDA3076DD500F004
S31500008034B1F8394F00263D688046451B01F007FE1E
S31500008044B24683463246334B1C6814B16369AB426D
S3150000805414D9012E314B51D1D288022A4ED11E7029
S31500008064002C4ED06369C7F800805D1B6561FFF77D
S3150000807489FD5846BDE8F84F01F0EFBD23462A4670
S31500008084C7F800805969914209D8187994F804C050
S31500008094521A844588BF1C469B68002BF2D1584669
S315000080A401F0DBFDD4F814B0C4F814A001F0CFFD40
S315000080B481462046FFF7BAFD484601F0CEFD236906
S315000080C44BB101F0C4FD814621692046FFF71CFD32
S315000080D4484601F0C2FDE36813B12168204698477B
S315000080E400F058F8D844A5EB08058146054401F08C
S315000080F4AEFD013683462246C846A4E700221A701E
S31500008104AEE7022000F086F8B3E7BDE8F88F00BFBB
S315000081140A340020F43100204C2E0020BA37002007
S315000081241FB50024184B18689A88029053F8060F56
S31500008134ADF80C201B79009002A88DF804308DF858
S3150000814408408DF80C4002F08DFA694601208DF83E
S31500008154004002F04BFA4FF090431F219A6922F037
S315000081641F029A61094A11609A6A12F00802FBD149
S315000081741A62012002F054FA4FF48062044BC3F8E9
S3150000818480211A6004B010BD88AB03001420004897
S3150000819400E100E04FF090439A6A1207FCD4186A93
S315000081A4704700004FF09042936A1907FCD4136A93
S315000081B4116C5269120704D4CA1A022A01D89942C8
S315000081C40ED1C21A012A98BF981CB0F1FF3F28BFEE
S315000081D401304FF0904318649A6942F008029A619C
S315000081E4054A13783BB14FF09041CB6B43F0020341
S315000081F4CB63002313707047EA21002082074FF0F7
S31500008204904200F00103916948BF43F008030B4311
S3150000821493617047830700F001020AD50121084BD8
S3150000822442F0080219704FF09041CB6B23F0030320
S31500008234CB634FF090418B6923EA02038B6170474D
S31500008244EA2100204FF0904301285B6904D00228FC
S3150000825405D1C3F3C000704703F001007047002046
S315000082647047000010B501F0F2FC4FF0904304464D
S315000082745B691A07074A03F0010003F00D0348BFC0
S3150000828440F002001360FFF7BFFE2046BDE8104031
S3150000829401F0E3BC142000481C2001F0E1B9000001
S315000082A4002211462D48F0B503682D4D54592CB1C2
S315000082B41E68AC18002E3DD1234601210832282A17
S315000082C4F4D101B10360002214462649264E0B68F8
S315000082D495592DB11F68B518002F32D12B460124AC
S315000082E40832282AF4D104B10B6000680368002B15
S315000082F42FD04FF04022936F007923F0FF7323F4BD
S31500008304803343EA00439367184B4FF000420968F1
S315000083141A600B68FBB14FF04022936F097923F47E
S31500008324FF7323F001030B439367104B4FF0804216
S315000083341A60F0BD1E792779B74284BF234601210E
S31500008344BCE71F7995F804C0BC453CBF2B46012405
S31500008354C6E7074BD9E7064BE8E700BF342E0020F3
S31500008364A0310020502E0020C83100206850004063
S315000083746860004010B5012228240F4B00211A70B2
S315000083840E4822462EF00BF8224600210C482EF009
S3150000839406F80C4B0C4A13600C4A13604FF040432A
S315000083A40B4A1360536020220A4BC3F880211A60DB
S315000083B4FFF776FF002010BD38360020A0310020DC
S315000083C4C8310020B02E0020342E0020502E00206C
S315000083D46460004000E100E04FF04022D2F88800DB
S315000083E4D2F88830C0F38800C3F388039842F5D1E5
S315000083F46FF48873184440B2704700004FF040226F
S31500008404936E526E10B5134013F0804211D0114B87
S315000084141B681C682CB1002119605960FFF7DCFF4A
S31500008424A0474FF080420C4B1A60BDE81040FFF79E
S3150000843437BF002BF9DA094B1B681C682CB11A608C
S315000084445A60FFF7C9FF0121A047034B4FF00042D2
S31500008454EAE700BF502E002064600040342E00205E
S31500008464FFF7CCBF042203685A619A699207FCD5C8
S3150000847441F2AC52102103795B0103F1804303F509
S31500008484703399507047012203685A619A69D2077A
S31500008494FCD541F2AC52042103795B0103F180431C
S315000084A403F570339950704738B141B1013AB2F5CA
S315000084B4006F044838BF00207047034870470148DE
S315000084C4704700BF037000F0027000F038B5044630
S315000084D40D4601F0BCFBA28892B222B92A6001F0D3
S315000084E4BCFB064838BD1422638802FB03430833E9
S315000084F42B6001F0B2FB0020F4E700BF0B7000F024
S3150000850438B504460D4601F0A2FBA3889BB223B9F5
S315000085142B6001F0A2FB0C4838BD14226388E18865
S3150000852402FB034308332B6063885A1C92FBF1F366
S3150000853401FB13239BB26380A388013B9BB2A380F8
S3150000854401F08BFB0020E7E70B7000F0F8B504465A
S3150000855417460D4601F07BFBA388E28806469A423D
S3150000856405D800233B6001F078FB1648F8BD1422B9
S31500008574238805F1100C02FB034308332A4603CA79
S31500008584624518605960154603F10803F6D1106870
S31500008594142218602388E18802FB034308333B60F6
S315000085A4238830465A1C92FBF1F301FB13239BB23A
S315000085B42380A38801339BB2A38001F04EFB0020E5
S315000085C4D4E700BF0A7000F090F83130022B0BD1CB
S315000085D43022437F90F821005A43044B9B5823FAD8
S315000085E400F000F0010070470020704714C00340FB
S315000085F4002313B51C4A52F8234094F821108142F3
S315000086040ED00133042BF6D102B010BD0028FBD1E5
S315000086149DF80730002BF7D0A068FFF737F9F3E78A
S3150000862494F83130022BEFD12046FFF7CDFF637E5D
S315000086342076022BE8D194F82E3003F0FF02002BAB
S31500008644E2D102A901F8012DA068FFF77FF9237E84
S315000086541BB194F82F30002BD8D00023A06884F8DF
S315000086642F30FFF733F9CFE7F831002038B5044649
S3150000867401F0EDFA616B05460139616319B9044AE3
S31500008684012003F0FDF82846BDE8384001F0E5BABC
S31500008694B0AB030038B5044601F0D9FA636B05465E
S315000086A423B90121054A084603F0EAF8636B284614
S315000086B401336363BDE8384001F0CFBAB0AB0300C1
S315000086C4012230B590F8324087B080F82C207CB96E
S315000086D4094D0368CDE9024504904C682433CDE97D
S315000086E400240A684169C068FFF7B6F807B030BDD0
S315000086F4002380F82C30F9E7599000000123F0B5E7
S3150000870480F82D3090F8323089B004460E4663BBAB
S31500008714056801F09CFA0DF11F01074615483C3522
S31500008724FFF71CFB40B99DF81F302BB11148FFF72A
S31500008734D3FA2046FFF79AFF3846012701F08DFA4F
S31500008744204684F83870FFF7A5FF0B4B0494039377
S315000087540023029373682A46CDE9007321693368BE
S31500008764A068FFF75FF809B0F0BD002380F82D304C
S31500008774F9E700BF043B002081870000F0B585B00F
S3150000878403A9906A1446FFF7A1FE0646206802F084
S3150000879457F90546FFF7B6FB24214143B1FBF5F132
S315000087A400252346CDE90055164A01311648FFF740
S315000087B4F1FA164B9E421FD0039B1D619D6001F08A
S315000087C446FA039A0746D66826B1D2E90023294613
S315000087D42046B04703A9A06AFFF792FEA06A8388E1
S315000087E49BB263B103A9FFF771FE03992046FFF715
S315000087F485FF384601F031FA012005B0F0BD84F852
S315000088042D30F6E715880000043B00200B7000F0BD
S3150000881473B508680D46846914F0200407D0084629
S31500008824FFF724FF022385F8383002B070BD02F04A
S3150000883407F90646FFF766FB24225043B0FBF6F021
S31500008844CDE90044411C2B46024A0348FFF7A2FA2D
S31500008854EBE700BF15880000043B00202DE9F34137
S315000088640D460446002800F0868001F0F0F9012D3B
S31500008874064637D1A36A9B889BB2002B39D0A068E1
S31500008884FFF744F80023A06A84F82D3083889BB24E
S31500008894002B34D1226893699B04FCD5023D012D3B
S315000088A41BD8E068FFF732F80023606A84F82C309E
S315000088B483889BB2002B41D194F83130032B0CD022
S315000088C442F2AC52042123795B0103F1804303F5A0
S315000088D470339950022223685A61304601F0BDF97B
S315000088E4002009E0022D48D1636A9B889BB2002BC5
S315000088F4D4D101F0B2F9264802B0BDE8F08101A94D
S31500008904FFF7E4FD0199A0680831FFF747F8214F06
S31500008914019B1F61A06A83889BB2002BBAD001A970
S31500008924FFF7EEFD019BD3F80C80B8F1000FF1D0F0
S315000089349B68002239462046C047EBE76946FFF7A5
S31500008944C5FD0099E0680831FFF728F8114F009B30
S315000089541F61606A83889BB2002BADD06946FFF71E
S31500008964CFFD009BDD68002DF3D09B6800223946BD
S315000089742046A847EDE70848BEE7032D8ED1A36A33
S315000089849B889BB2002B7FF47AAF636A73E700BFC0
S31500008994087000F0097000F0027000F0036898692E
S315000089A47047436A9888C0B270472DE9F3419846E8
S315000089B400230546406A0E4684881746A4B2CDE9CC
S315000089C400333CB16946FFF781FD01A90446E86816
S315000089D4FEF7E4FF009969B164B94868019BC01ABF
S315000089E43860C8F800300B6833602B68986902B0A9
S315000089F4BDE8F0810021C8F8001039603160F4E761
S31500008A04836A9888C0B270472DE9F34198460023DB
S31500008A140546806A0E4684881746A4B2CDE900331B
S31500008A243CB16946FFF752FD01A90446A868FEF762
S31500008A34B5FF009969B164B94868019BC01A3860EA
S31500008A44C8F800300B6833602B68986902B0BDE83B
S31500008A54F0810021C8F8001039603160F4E7007E27
S31500008A6470472DE9F04104460F461546FFF71CFDF5
S31500008A74064678BB152001F00FF98046A26A938852
S31500008A849BB213B194F82E303BB323689B6913F061
S31500008A94020802D12046FFF7E5FC012384F83030B2
S31500008AA494F8323033B93D44AF4220681BD1836910
S31500008AB49B06FCD5B8F1000F0CD142F2AC52102142
S31500008AC423795B0103F1804303F57033995008223F
S31500008AD423685A613046BDE8F081B8F1000FCED064
S31500008AE4FEF77EFFCAE717F8011B02F07DF8DBE705
S31500008AF410B5044680B190F82E302BB9FFF764FD0B
S31500008B0410B9A068FEF7C2FE002094F82E30013397
S31500008B14DBB284F82E3010BD0048FCE7027000F08A
S31500008B2410B50446A0B190F82E309BB190F82E30C3
S31500008B34012B05D1FFF748FD10B9A068FEF7C6FE64
S31500008B44002094F82E30013BDBB284F82E3010BDA1
S31500008B540148FCE70148FAE7027000F0057000F0EE
S31500008B6437B590F831500446022D1ED1012190F8F4
S31500008B742220457E837F01FA02F23020154925B969
S31500008B8400FB031342F2100105E0012D07D100FB9F
S31500008B94031341F210015A50002003B030BD247E65
S31500008BA400FB0313002CF4D1ECE7012DF4D1037E72
S31500008BB473B911238DF80730FFF79AFF2A460DF192
S31500008BC407012046FFF74DFF2046FFF7A9FFE3E71D
S31500008BD41323EFE700C00340F0B504468BB0A24F61
S31500008BE403AE0D460FCF0FC697E8070086E80700C9
S31500008BF41CB99E4C20460BB0F0BD0DB99C4CF9E750
S31500008C043C22002120462DF0CAFB9A499A4B0A7849
S31500008C142AB9C3E90022C3E9022201220A7000220A
S31500008C2453F822108C420AD00132042AF8D10022C9
S31500008C3453F82210002940F0D08043F822402B7DBF
S31500008C44286884F831300023206084F832302B7B86
S31500008C542371012384F83830884B984240F0C2804F
S31500008C64212384F82330864B23614FF48023002686
S31500008C746361D5E90723626216805680968084F87C
S31500008C842C60A3621E805E809E806B6803A9059398
S31500008C94EB8984F82D60ADF81C302B8A84F82F609C
S31500008CA4ADF81A30AB7C8DF80C608DF81830EB7C7F
S31500008CB48DF81E3005238DF8193001F017FF1421A5
S31500008CC42A7B704B287A03EB4217C7F8AC15A97AAE
S31500008CD42E3240EA014C03EB4213C3F804C06A7A0D
S31500008CE4EB7A42EA034CC7F8BCC5E17784F8203036
S31500008CF46B7DE07622776377AB7D042284F821309E
S31500008D04EB7DA3772B7E84F82230012301F098F8BB
S31500008D140123022294F82010207F01F091F894F8A0
S31500008D243130022B75D13346012294F82110607F2D
S31500008D3401F086F83346042294F82210A07F01F04D
S31500008D447FF8012394F82120607F1146CDE9003392
S31500008D5401F01CF800F07BFF2E7D0746032E69D137
S31500008D6441F2AC5202212B7B04205B0103F18043C8
S31500008D7403F57033995041F25C0229688850297EC4
S31500008D84EA7D42EA014241F2B8515A50A97D6A7D10
S31500008D9442EA014241F2B4515A504FF0FF3242F2D4
S31500008DA448032868C2502B7D032B0CBF05210421E0
S31500008DB401F056FE4FF440622B685A61FEF7FCFC44
S31500008DC4002104F10800FEF785FC0146002842D084
S31500008DD42D4C384600F041FF0CE70132042A7FF49B
S31500008DE427AF06E7294B984207D1222384F823307C
S31500008DF4274B23614FF4A02339E7264B98427FF48F
S31500008E04FDAE232384F82330234B23614FF4C02380
S31500008E142DE7032B9ED1334694F82110607F01225F
S31500008E2401F00EF83346042294F82210A07F01F0D4
S31500008E3407F88FE7022EB0D194F821001749FEF700
S31500008E442DFEFEF71DFE00236676A37623762046C6
S31500008E54FFF786FEA1E704F10C00FEF73BFC04468F
S31500008E640028B6D0B4E700BF94AB0300027000F04C
S31500008E74037000F0CA370020F83100200080054056
S31500008E840200040000C003400E7000F000C005405C
S31500008E94020005000000064002000600F5850000F9
S31500008EA490F83130032B05D00229417618BF01769C
S31500008EB4FFF756BE00487047057000F030B504460B
S31500008EC485B0002800F08F80484B1B7843B10023FF
S31500008ED4474A52F823108C4270D1002142F82310DD
S31500008EE403212046FFF7BAFC00212046FFF7D8FFEE
S31500008EF40023E17F1A46E07E00F0A2FF002394F8E7
S31500008F0420101A46207F00F09BFF94F83130022B84
S31500008F1458D1002394F821101A46607F00F090FF80
S31500008F24002394F822101A46A07F00F089FF00213E
S31500008F34012394F82120607FCDE90031114600F029
S31500008F4425FF94F8323013B90A2223685A6194F83B
S31500008F543130022B04D1002194F82100FEF79EFD46
S31500008F64A068FEF703FCE068FEF700FCFEF7DEFBF4
S31500008F740023626A138053809380A26A138053800D
S31500008F84938000F064FE0DF10F0105461948FEF7C3
S31500008F94E5FE28B99DF80F3013B11648FEF79CFE7E
S31500008FA4284600F05AFE636B002B04DD012320469D
S31500008FB46363FFF75BFB002005B030BD0133042B70
S31500008FC487D18DE7032BBCD1002394F821101A46D0
S31500008FD4607F00F035FF002394F822101A46A07F24
S31500008FE400F02EFFADE70448E6E700BFCA370020CD
S31500008FF4F8310020043B0020027000F0F0B587B081
S3150000900404461646FFF750FA0546E8B90493104B92
S31500009014CDE901166A4601A9606A03960593FFF72E
S3150000902495FA054680B994F82C306BB92046FFF7BB
S315000090342AFA0099FFF744FB94F83130032B03D046
S3150000904425762046FFF78CFD284607B0F0BD00BF05
S31500009054017000F073B5506A01A91446FFF736FA99
S315000090642F4B984230D094F83200019B002839D116
S315000090742268916C11F4007129D02A49986019610B
S3150000908442F248034FF40071D15000F0E0FD01991B
S315000090940646CD6835B14A688B682046D31A0A68F5
S315000090A40969A84701A9606AFFF72AFA606A8588F0
S315000090B4ADB2DDB101A9FFF709FA01992046FFF720
S315000090C4FFFA304600F0C9FD012002B070BD906C75
S315000090D4C00507D51448996018614FF4807142F2AF
S315000090E44803D1E700221A619A60CEE7012320469D
S315000090F42376FFF735FD94F8313084F82C50032B92
S31500009104DFD042F2AC52042123795B0103F18043A0
S3150000911403F570339950022223685A61D1E700BFE0
S315000091240B7000F00D7000F00C7000F090F8312018
S3150000913410B5012A034610D102290ED0827E8A4236
S3150000914401D1002010BD997611B9FFF7E9FCF8E7C3
S315000091540129F6D1FFF7CCFCF3E70148F2E700BF9B
S31500009164057000F0F0B587B004461646FFF79CF983
S31500009174054638BB0493154B039605932368CDE93E
S3150000918401169B699B0702D42046FFF76BF96A46D2
S3150000919401A9A06AFFF7DAF9054698B994F82D30C3
S315000091A483B900F054FDA36A06469B889BB233B18B
S315000091B400992046FFF7A2FA012384F8303030469E
S315000091C400F04BFD284607B0F0BD00BF017000F06B
S315000091D470B588B00E22002104A82DF0E0F8012312
S315000091E40D22002168468DF810302DF0D8F80223A0
S315000091F4244C6A46002120468DF8063001F056FBC1
S31500009204236B4FF6FF73204EE36100233546ADF81A
S31500009214123004A9204601F0FCFA062000F020FAD8
S31500009224BDF812300133B0FBF3F09BB2B3F5806F97
S315000092343060ADF8123002D2144B9842E9D80F20B0
S3150000924400F00EFA1249134CB1FBF0F12868002520
S31500009254E1FB0045104A0023204629462CF0AAFECD
S315000092640E4B084A186000200D4B1870936923F0C2
S315000092741003936140220B4BC3F880211A6008B097
S3150000928470BD00BF008004400C2D002080841E00A9
S3150000929400B0710B20A1070040420F00A82E002049
S315000092A4C437002000E100E0F7B500251D4B1E4C35
S315000092B419681E4AE0FB01450023204629462CF086
S315000092C479FE4FF6E85400254FF6E75E4FF0FF3778
S315000092D4DFF860C0164E8D4208BF844211D380B2B7
S315000092E460B1144A516A89B2536A9BB2ADF806302A
S315000092F4BDF806305B1A9BB29842F5D8002003B03D
S31500009304F0BDDCF8242092B2DCF824309BB2ADF830
S315000093140430BDF804309B1A9BB27345F4D9801906
S315000093247941D8E70C2D002020A1070040420F0008
S315000093341802FFFF00800440054B5A69D20606D581
S3150000934442F21402102199500122024B1A707047FE
S3150000935400800440C437002038B5124B0546D3F8C4
S3150000936420310C4603F00703013B032B17D8DFE833
S3150000937403F0020A0E1201F0ABFC042305B12860C7
S3150000938404B1237038BD01F0D9FC0323F6E701F0DC
S31500009394F1FC0523F2E701F0E9FC0223EEE70023E2
S315000093A41846EBE70080004037B50C460021114B08
S315000093B40191D3F88031054603F00303022B0ED046
S315000093C4032B11D0012B03D101A8FFF7C5FF0D21F3
S315000093D40DB1019B2B6004B1217003B030BD01F0C7
S315000093E4C9FC05210190F3E701F0C0FC02210190BC
S315000093F4EEE700BF0080004038B5104B0546D3F8B1
S3150000940440310C4603F00303022B0BD0032B0DD083
S31500009414012B0FD101F0F2FC082305B1286004B139
S31500009424237038BD01F0F0FC0723F6E701F0E9FCF0
S315000094340923F2E700231846EFE700BF0080004047
S3150000944438B5104B0546D3F860310C4603F00303D8
S31500009454022B0BD0032B0DD0012B0FD101F0CEFC28
S31500009464082305B1286004B1237038BD01F0CCFC93
S315000094740723F6E701F0C5FC0923F2E700231846A3
S31500009484EFE700BF0080004038B5134B0546D3F81C
S3150000949400320C4603F00703013B032B18D8DFE820
S315000094A403F0020A0E1201F0A9FC082305B1286094
S315000094B404B1237038BD01F0A7FC0723F6E701F0D9
S315000094C4A0FC0923F2E701F023FC0C23800AEDE754
S315000094D400231846EAE700BF0080004038B5134B66
S315000094E40546D3F808320C4603F00703013B032B69
S315000094F418D8DFE803F0020A0E1201F07FFC0823F5
S3150000950405B1286004B1237038BD01F07DFC072342
S31500009514F6E701F076FC0923F2E701F0F9FB0C23E8
S31500009524800AEDE700231846EAE700BF0080004002
S3150000953438B5104B0546D3F840320C4603F0030306
S31500009544022B0BD0032B0DD0012B0FD101F056FCAF
S31500009554082305B1286004B1237038BD01F054FC1A
S315000095640723F6E701F04DFC0923F2E7002318462A
S31500009574EFE700BF0080004038B5104B0546D3F82E
S3150000958400310C4603F00303022B0BD0032B0DD042
S31500009594012B0FD101F0D2FB032305B1286004B1DE
S315000095A4237038BD01F030FC0723F6E701F0DCFB3D
S315000095B40623F2E701230020EFE700BF0080004006
S315000095C441F671320F4B10B5D969DA639A680E4CBD
S315000095D422F44012A04288BF42F480129A600B4AD9
S315000095E40B4CD2F81832A04223F0020388BF43F092
S315000095F4020301F48031C2F8183211B10022014B82
S31500009604DA6310BD00000340C017530200C00740D0
S3150000961480F0FA0208B501F08DFBBDE80840FFF7BB
S31500009624CFBF000002280CD007D8012814D10B4B59
S31500009634186FC0F3013001307047032807D00F2894
S31500009644F4E7064BD3F89000C0F30460F3E7034B4A
